{
  "contractName": "Patchwork",
  "abi": [
    {
      "inputs": [],
      "stateMutability": "nonpayable",
      "type": "constructor"
    },
    {
      "anonymous": false,
      "inputs": [
        {
          "indexed": true,
          "internalType": "address",
          "name": "owner",
          "type": "address"
        },
        {
          "indexed": true,
          "internalType": "address",
          "name": "approved",
          "type": "address"
        },
        {
          "indexed": true,
          "internalType": "uint256",
          "name": "tokenId",
          "type": "uint256"
        }
      ],
      "name": "Approval",
      "type": "event"
    },
    {
      "anonymous": false,
      "inputs": [
        {
          "indexed": true,
          "internalType": "address",
          "name": "owner",
          "type": "address"
        },
        {
          "indexed": true,
          "internalType": "address",
          "name": "operator",
          "type": "address"
        },
        {
          "indexed": false,
          "internalType": "bool",
          "name": "approved",
          "type": "bool"
        }
      ],
      "name": "ApprovalForAll",
      "type": "event"
    },
    {
      "anonymous": false,
      "inputs": [
        {
          "indexed": true,
          "internalType": "address",
          "name": "from",
          "type": "address"
        },
        {
          "indexed": true,
          "internalType": "address",
          "name": "to",
          "type": "address"
        },
        {
          "indexed": true,
          "internalType": "uint256",
          "name": "tokenId",
          "type": "uint256"
        }
      ],
      "name": "Transfer",
      "type": "event"
    },
    {
      "inputs": [
        {
          "internalType": "address",
          "name": "",
          "type": "address"
        }
      ],
      "name": "_isAdmin",
      "outputs": [
        {
          "internalType": "bool",
          "name": "",
          "type": "bool"
        }
      ],
      "stateMutability": "view",
      "type": "function"
    },
    {
      "inputs": [
        {
          "internalType": "uint256",
          "name": "",
          "type": "uint256"
        }
      ],
      "name": "_isPatchwork",
      "outputs": [
        {
          "internalType": "bool",
          "name": "",
          "type": "bool"
        }
      ],
      "stateMutability": "view",
      "type": "function"
    },
    {
      "inputs": [],
      "name": "_patchMetadataAddress",
      "outputs": [
        {
          "internalType": "address",
          "name": "",
          "type": "address"
        }
      ],
      "stateMutability": "view",
      "type": "function"
    },
    {
      "inputs": [],
      "name": "_patchworkCounter",
      "outputs": [
        {
          "internalType": "uint256",
          "name": "",
          "type": "uint256"
        }
      ],
      "stateMutability": "view",
      "type": "function"
    },
    {
      "inputs": [],
      "name": "_patchworkMetadataAddress",
      "outputs": [
        {
          "internalType": "address",
          "name": "",
          "type": "address"
        }
      ],
      "stateMutability": "view",
      "type": "function"
    },
    {
      "inputs": [
        {
          "internalType": "uint256",
          "name": "",
          "type": "uint256"
        }
      ],
      "name": "_patchworkToTokenIdMapping",
      "outputs": [
        {
          "internalType": "uint256",
          "name": "",
          "type": "uint256"
        }
      ],
      "stateMutability": "view",
      "type": "function"
    },
    {
      "inputs": [],
      "name": "_size",
      "outputs": [
        {
          "internalType": "uint8",
          "name": "",
          "type": "uint8"
        }
      ],
      "stateMutability": "view",
      "type": "function"
    },
    {
      "inputs": [],
      "name": "_tokenId",
      "outputs": [
        {
          "internalType": "uint256",
          "name": "",
          "type": "uint256"
        }
      ],
      "stateMutability": "view",
      "type": "function"
    },
    {
      "inputs": [
        {
          "internalType": "uint256",
          "name": "",
          "type": "uint256"
        }
      ],
      "name": "_tokenIdIdToPatchwork",
      "outputs": [
        {
          "internalType": "uint256",
          "name": "id",
          "type": "uint256"
        },
        {
          "internalType": "string",
          "name": "defaultColors",
          "type": "string"
        },
        {
          "internalType": "string",
          "name": "shapes",
          "type": "string"
        },
        {
          "internalType": "string",
          "name": "borders",
          "type": "string"
        },
        {
          "internalType": "string",
          "name": "bordersColor",
          "type": "string"
        }
      ],
      "stateMutability": "view",
      "type": "function"
    },
    {
      "inputs": [
        {
          "internalType": "uint256",
          "name": "",
          "type": "uint256"
        }
      ],
      "name": "_tokenIdToPatch",
      "outputs": [
        {
          "internalType": "uint256",
          "name": "id",
          "type": "uint256"
        },
        {
          "internalType": "uint256",
          "name": "associatedPatchwork",
          "type": "uint256"
        },
        {
          "internalType": "string",
          "name": "colors",
          "type": "string"
        },
        {
          "internalType": "string",
          "name": "shapes",
          "type": "string"
        },
        {
          "internalType": "string",
          "name": "borders",
          "type": "string"
        },
        {
          "internalType": "string",
          "name": "borderColors",
          "type": "string"
        }
      ],
      "stateMutability": "view",
      "type": "function"
    },
    {
      "inputs": [
        {
          "internalType": "address",
          "name": "to",
          "type": "address"
        },
        {
          "internalType": "uint256",
          "name": "tokenId",
          "type": "uint256"
        }
      ],
      "name": "approve",
      "outputs": [],
      "stateMutability": "nonpayable",
      "type": "function"
    },
    {
      "inputs": [
        {
          "internalType": "address",
          "name": "owner",
          "type": "address"
        }
      ],
      "name": "balanceOf",
      "outputs": [
        {
          "internalType": "uint256",
          "name": "",
          "type": "uint256"
        }
      ],
      "stateMutability": "view",
      "type": "function"
    },
    {
      "inputs": [
        {
          "internalType": "uint256",
          "name": "tokenId",
          "type": "uint256"
        }
      ],
      "name": "getApproved",
      "outputs": [
        {
          "internalType": "address",
          "name": "",
          "type": "address"
        }
      ],
      "stateMutability": "view",
      "type": "function"
    },
    {
      "inputs": [
        {
          "internalType": "address",
          "name": "owner",
          "type": "address"
        },
        {
          "internalType": "address",
          "name": "operator",
          "type": "address"
        }
      ],
      "name": "isApprovedForAll",
      "outputs": [
        {
          "internalType": "bool",
          "name": "",
          "type": "bool"
        }
      ],
      "stateMutability": "view",
      "type": "function"
    },
    {
      "inputs": [],
      "name": "name",
      "outputs": [
        {
          "internalType": "string",
          "name": "",
          "type": "string"
        }
      ],
      "stateMutability": "view",
      "type": "function"
    },
    {
      "inputs": [
        {
          "internalType": "uint256",
          "name": "tokenId",
          "type": "uint256"
        }
      ],
      "name": "ownerOf",
      "outputs": [
        {
          "internalType": "address",
          "name": "",
          "type": "address"
        }
      ],
      "stateMutability": "view",
      "type": "function"
    },
    {
      "inputs": [
        {
          "internalType": "address",
          "name": "from",
          "type": "address"
        },
        {
          "internalType": "address",
          "name": "to",
          "type": "address"
        },
        {
          "internalType": "uint256",
          "name": "tokenId",
          "type": "uint256"
        }
      ],
      "name": "safeTransferFrom",
      "outputs": [],
      "stateMutability": "nonpayable",
      "type": "function"
    },
    {
      "inputs": [
        {
          "internalType": "address",
          "name": "from",
          "type": "address"
        },
        {
          "internalType": "address",
          "name": "to",
          "type": "address"
        },
        {
          "internalType": "uint256",
          "name": "tokenId",
          "type": "uint256"
        },
        {
          "internalType": "bytes",
          "name": "data",
          "type": "bytes"
        }
      ],
      "name": "safeTransferFrom",
      "outputs": [],
      "stateMutability": "nonpayable",
      "type": "function"
    },
    {
      "inputs": [
        {
          "internalType": "address",
          "name": "operator",
          "type": "address"
        },
        {
          "internalType": "bool",
          "name": "approved",
          "type": "bool"
        }
      ],
      "name": "setApprovalForAll",
      "outputs": [],
      "stateMutability": "nonpayable",
      "type": "function"
    },
    {
      "inputs": [],
      "name": "symbol",
      "outputs": [
        {
          "internalType": "string",
          "name": "",
          "type": "string"
        }
      ],
      "stateMutability": "view",
      "type": "function"
    },
    {
      "inputs": [
        {
          "internalType": "address",
          "name": "from",
          "type": "address"
        },
        {
          "internalType": "address",
          "name": "to",
          "type": "address"
        },
        {
          "internalType": "uint256",
          "name": "tokenId",
          "type": "uint256"
        }
      ],
      "name": "transferFrom",
      "outputs": [],
      "stateMutability": "nonpayable",
      "type": "function"
    },
    {
      "inputs": [
        {
          "internalType": "bytes4",
          "name": "interfaceId",
          "type": "bytes4"
        }
      ],
      "name": "supportsInterface",
      "outputs": [
        {
          "internalType": "bool",
          "name": "",
          "type": "bool"
        }
      ],
      "stateMutability": "view",
      "type": "function"
    },
    {
      "inputs": [
        {
          "internalType": "address",
          "name": "account",
          "type": "address"
        },
        {
          "internalType": "string",
          "name": "colors",
          "type": "string"
        },
        {
          "internalType": "string",
          "name": "shapes",
          "type": "string"
        },
        {
          "internalType": "string",
          "name": "borders",
          "type": "string"
        },
        {
          "internalType": "string",
          "name": "borderColors",
          "type": "string"
        }
      ],
      "name": "adminMintPatch",
      "outputs": [],
      "stateMutability": "nonpayable",
      "type": "function"
    },
    {
      "inputs": [
        {
          "internalType": "address",
          "name": "account",
          "type": "address"
        },
        {
          "internalType": "string",
          "name": "defaultColors",
          "type": "string"
        },
        {
          "internalType": "string",
          "name": "defaultShapes",
          "type": "string"
        },
        {
          "internalType": "string",
          "name": "defaultBorders",
          "type": "string"
        },
        {
          "internalType": "string",
          "name": "defaultBordersColor",
          "type": "string"
        }
      ],
      "name": "adminMintPatchwork",
      "outputs": [],
      "stateMutability": "nonpayable",
      "type": "function"
    },
    {
      "inputs": [
        {
          "internalType": "address",
          "name": "admin",
          "type": "address"
        }
      ],
      "name": "toggleAdmin",
      "outputs": [],
      "stateMutability": "nonpayable",
      "type": "function"
    },
    {
      "inputs": [
        {
          "internalType": "address",
          "name": "patchworkMetadataAddress",
          "type": "address"
        }
      ],
      "name": "setPatchworkMetadataAddress",
      "outputs": [],
      "stateMutability": "nonpayable",
      "type": "function"
    },
    {
      "inputs": [
        {
          "internalType": "uint256",
          "name": "tokenId",
          "type": "uint256"
        }
      ],
      "name": "tokenURI",
      "outputs": [
        {
          "internalType": "string",
          "name": "",
          "type": "string"
        }
      ],
      "stateMutability": "view",
      "type": "function"
    },
    {
      "inputs": [
        {
          "internalType": "uint256",
          "name": "tokenId",
          "type": "uint256"
        }
      ],
      "name": "burn",
      "outputs": [],
      "stateMutability": "nonpayable",
      "type": "function"
    },
    {
      "inputs": [
        {
          "internalType": "address payable",
          "name": "_recipient",
          "type": "address"
        },
        {
          "internalType": "uint256",
          "name": "_royaltyPerCent",
          "type": "uint256"
        }
      ],
      "name": "setRoyalties",
      "outputs": [],
      "stateMutability": "nonpayable",
      "type": "function"
    },
    {
      "inputs": [
        {
          "internalType": "uint256",
          "name": "salePrice",
          "type": "uint256"
        }
      ],
      "name": "royaltyInfo",
      "outputs": [
        {
          "internalType": "address",
          "name": "",
          "type": "address"
        },
        {
          "internalType": "uint256",
          "name": "",
          "type": "uint256"
        }
      ],
      "stateMutability": "view",
      "type": "function"
    }
  ],
  "bytecode": "0x60806040523480156200001157600080fd5b506040518060400160405280600981526020017f5061746368776f726b00000000000000000000000000000000000000000000008152506040518060400160405280600981526020017f5061746368776f726b000000000000000000000000000000000000000000000081525081600090816200008f9190620003f1565b508060019081620000a19190620003f1565b5050506001600c60003373ffffffffffffffffffffffffffffffffffffffff1673ffffffffffffffffffffffffffffffffffffffff16815260200190815260200160002060006101000a81548160ff02191690831515021790555033600960016101000a81548173ffffffffffffffffffffffffffffffffffffffff021916908373ffffffffffffffffffffffffffffffffffffffff160217905550600a600681905550600060088190555060006007819055506005600960006101000a81548160ff021916908360ff160217905550620004d8565b600081519050919050565b7f4e487b7100000000000000000000000000000000000000000000000000000000600052604160045260246000fd5b7f4e487b7100000000000000000000000000000000000000000000000000000000600052602260045260246000fd5b60006002820490506001821680620001f957607f821691505b6020821081036200020f576200020e620001b1565b5b50919050565b60008190508160005260206000209050919050565b60006020601f8301049050919050565b600082821b905092915050565b600060088302620002797fffffffffffffffffffffffffffffffffffffffffffffffffffffffffffffffff826200023a565b6200028586836200023a565b95508019841693508086168417925050509392505050565b6000819050919050565b6000819050919050565b6000620002d2620002cc620002c6846200029d565b620002a7565b6200029d565b9050919050565b6000819050919050565b620002ee83620002b1565b62000306620002fd82620002d9565b84845462000247565b825550505050565b600090565b6200031d6200030e565b6200032a818484620002e3565b505050565b5b8181101562000352576200034660008262000313565b60018101905062000330565b5050565b601f821115620003a1576200036b8162000215565b62000376846200022a565b8101602085101562000386578190505b6200039e62000395856200022a565b8301826200032f565b50505b505050565b600082821c905092915050565b6000620003c660001984600802620003a6565b1980831691505092915050565b6000620003e18383620003b3565b9150826002028217905092915050565b620003fc8262000177565b67ffffffffffffffff81111562000418576200041762000182565b5b620004248254620001e0565b6200043182828562000356565b600060209050601f83116001811462000469576000841562000454578287015190505b620004608582620003d3565b865550620004d0565b601f198416620004798662000215565b60005b82811015620004a3578489015182556001820191506020850194506020810190506200047c565b86831015620004c35784890151620004bf601f891682620003b3565b8355505b6001600288020188555050505b505050505050565b614ff580620004e86000396000f3fe608060405234801561001057600080fd5b50600436106101da5760003560e01c80636352211e11610104578063b88d4fde116100a2578063d3b8614111610071578063d3b861411461057e578063d8297da61461059a578063e985e9c5146105cf578063e9e43f1f146105ff576101da565b8063b88d4fde146104e3578063c87b56dd146104ff578063cef6d3681461052f578063d136d90c14610560576101da565b80638d9c4577116100de5780638d9c45771461046f57806395d89b411461048d578063a22cb465146104ab578063b21dbab6146104c7576101da565b80636352211e146103f357806370a08231146104235780638c7ea24b14610453576101da565b806323b872dd1161017c5780634d5cc06a1161014b5780634d5cc06a1461036d57806355807c131461038957806358d362c2146103a55780635e1518de146103c3576101da565b806323b872dd146102fb578063248225141461031757806342842e0e1461033557806342966c6814610351576101da565b8063081812fc116101b8578063081812fc1461024b578063095ea7b31461027b57806310df027d14610297578063205f391c146102c7576101da565b806301601215146101df57806301ffc9a7146101fd57806306fdde031461022d575b600080fd5b6101e761062f565b6040516101f49190613504565b60405180910390f35b6102176004803603810190610212919061358b565b610655565b60405161022491906135d3565b60405180910390f35b6102356106df565b604051610242919061367e565b60405180910390f35b610265600480360381019061026091906136d6565b610771565b6040516102729190613504565b60405180910390f35b6102956004803603810190610290919061372f565b6107b7565b005b6102b160048036038101906102ac91906136d6565b6108ce565b6040516102be91906135d3565b60405180910390f35b6102e160048036038101906102dc91906136d6565b6108ee565b6040516102f295949392919061377e565b60405180910390f35b610315600480360381019061031091906137ed565b610b44565b005b61031f610ba4565b60405161032c9190613840565b60405180910390f35b61034f600480360381019061034a91906137ed565b610baa565b005b61036b600480360381019061036691906136d6565b610bca565b005b610387600480360381019061038291906138c0565b610c4c565b005b6103a3600480360381019061039e91906139bc565b610f97565b005b6103ad611067565b6040516103ba9190613504565b60405180910390f35b6103dd60048036038101906103d891906136d6565b61108d565b6040516103ea9190613840565b60405180910390f35b61040d600480360381019061040891906136d6565b6110a5565b60405161041a9190613504565b60405180910390f35b61043d600480360381019061043891906139bc565b611156565b60405161044a9190613840565b60405180910390f35b61046d60048036038101906104689190613a27565b61120d565b005b6104776112e5565b6040516104849190613840565b60405180910390f35b6104956112eb565b6040516104a2919061367e565b60405180910390f35b6104c560048036038101906104c09190613a93565b61137d565b005b6104e160048036038101906104dc91906138c0565b611393565b005b6104fd60048036038101906104f89190613c03565b61170c565b005b610519600480360381019061051491906136d6565b61176e565b604051610526919061367e565b60405180910390f35b610549600480360381019061054491906136d6565b61235a565b604051610557929190613c86565b60405180910390f35b610568612406565b6040516105759190613ccb565b60405180910390f35b610598600480360381019061059391906139bc565b612419565b005b6105b460048036038101906105af91906136d6565b61254c565b6040516105c696959493929190613ce6565b60405180910390f35b6105e960048036038101906105e49190613d63565b6127a8565b6040516105f691906135d3565b60405180910390f35b610619600480360381019061061491906139bc565b61283c565b60405161062691906135d3565b60405180910390f35b600b60009054906101000a900473ffffffffffffffffffffffffffffffffffffffff1681565b60006106608261285c565b806106c857507f2a55205a000000000000000000000000000000000000000000000000000000007bffffffffffffffffffffffffffffffffffffffffffffffffffffffff1916827bffffffffffffffffffffffffffffffffffffffffffffffffffffffff1916145b806106d857506106d78261285c565b5b9050919050565b6060600080546106ee90613dd2565b80601f016020809104026020016040519081016040528092919081815260200182805461071a90613dd2565b80156107675780601f1061073c57610100808354040283529160200191610767565b820191906000526020600020905b81548152906001019060200180831161074a57829003601f168201915b5050505050905090565b600061077c8261293e565b6004600083815260200190815260200160002060009054906101000a900473ffffffffffffffffffffffffffffffffffffffff169050919050565b60006107c2826110a5565b90508073ffffffffffffffffffffffffffffffffffffffff168373ffffffffffffffffffffffffffffffffffffffff1603610832576040517f08c379a000000000000000000000000000000000000000000000000000000000815260040161082990613e75565b60405180910390fd5b8073ffffffffffffffffffffffffffffffffffffffff16610851612989565b73ffffffffffffffffffffffffffffffffffffffff161480610880575061087f8161087a612989565b6127a8565b5b6108bf576040517f08c379a00000000000000000000000000000000000000000000000000000000081526004016108b690613f07565b60405180910390fd5b6108c98383612991565b505050565b600d6020528060005260406000206000915054906101000a900460ff1681565b601060205280600052604060002060009150905080600001549080600101805461091790613dd2565b80601f016020809104026020016040519081016040528092919081815260200182805461094390613dd2565b80156109905780601f1061096557610100808354040283529160200191610990565b820191906000526020600020905b81548152906001019060200180831161097357829003601f168201915b5050505050908060020180546109a590613dd2565b80601f01602080910402602001604051908101604052809291908181526020018280546109d190613dd2565b8015610a1e5780601f106109f357610100808354040283529160200191610a1e565b820191906000526020600020905b815481529060010190602001808311610a0157829003601f168201915b505050505090806003018054610a3390613dd2565b80601f0160208091040260200160405190810160405280929190818152602001828054610a5f90613dd2565b8015610aac5780601f10610a8157610100808354040283529160200191610aac565b820191906000526020600020905b815481529060010190602001808311610a8f57829003601f168201915b505050505090806004018054610ac190613dd2565b80601f0160208091040260200160405190810160405280929190818152602001828054610aed90613dd2565b8015610b3a5780601f10610b0f57610100808354040283529160200191610b3a565b820191906000526020600020905b815481529060010190602001808311610b1d57829003601f168201915b5050505050905085565b610b55610b4f612989565b82612a4a565b610b94576040517f08c379a0000000000000000000000000000000000000000000000000000000008152600401610b8b90613f99565b60405180910390fd5b610b9f838383612adf565b505050565b60075481565b610bc58383836040518060200160405280600081525061170c565b505050565b3373ffffffffffffffffffffffffffffffffffffffff16610bea826110a5565b73ffffffffffffffffffffffffffffffffffffffff1614610c40576040517f08c379a0000000000000000000000000000000000000000000000000000000008152600401610c379061402b565b60405180910390fd5b610c4981612d45565b50565b600c60003373ffffffffffffffffffffffffffffffffffffffff1673ffffffffffffffffffffffffffffffffffffffff16815260200190815260200160002060009054906101000a900460ff16610cd8576040517f08c379a0000000000000000000000000000000000000000000000000000000008152600401610ccf90614097565b60405180910390fd5b600060085414158015610d4557506001600960009054906101000a900460ff16600960009054906101000a900460ff16610d1291906140e6565b610d1c9190614123565b60ff16600e6000600854815260200190815260200160002054610d3f9190614158565b60075414155b610d84576040517f08c379a0000000000000000000000000000000000000000000000000000000008152600401610d7b906141d8565b60405180910390fd5b610d9089600754612e62565b6040518060c001604052806007548152602001600e60006001600854610db691906141f8565b815260200190815260200160002054815260200189898080601f016020809104026020016040519081016040528093929190818152602001838380828437600081840152601f19601f82011690508083019250505050505050815260200187878080601f016020809104026020016040519081016040528093929190818152602001838380828437600081840152601f19601f82011690508083019250505050505050815260200185858080601f016020809104026020016040519081016040528093929190818152602001838380828437600081840152601f19601f82011690508083019250505050505050815260200183838080601f016020809104026020016040519081016040528093929190818152602001838380828437600081840152601f19601f82011690508083019250505050505050815250600f6000600754815260200190815260200160002060008201518160000155602082015181600101556040820151816002019081610f2e91906143d8565b506060820151816003019081610f4491906143d8565b506080820151816004019081610f5a91906143d8565b5060a0820151816005019081610f7091906143d8565b5090505060076000815480929190610f87906144aa565b9190505550505050505050505050565b600c60003373ffffffffffffffffffffffffffffffffffffffff1673ffffffffffffffffffffffffffffffffffffffff16815260200190815260200160002060009054906101000a900460ff16611023576040517f08c379a000000000000000000000000000000000000000000000000000000000815260040161101a90614097565b60405180910390fd5b80600b60006101000a81548173ffffffffffffffffffffffffffffffffffffffff021916908373ffffffffffffffffffffffffffffffffffffffff16021790555050565b600a60009054906101000a900473ffffffffffffffffffffffffffffffffffffffff1681565b600e6020528060005260406000206000915090505481565b6000806002600084815260200190815260200160002060009054906101000a900473ffffffffffffffffffffffffffffffffffffffff169050600073ffffffffffffffffffffffffffffffffffffffff168173ffffffffffffffffffffffffffffffffffffffff160361114d576040517f08c379a00000000000000000000000000000000000000000000000000000000081526004016111449061453e565b60405180910390fd5b80915050919050565b60008073ffffffffffffffffffffffffffffffffffffffff168273ffffffffffffffffffffffffffffffffffffffff16036111c6576040517f08c379a00000000000000000000000000000000000000000000000000000000081526004016111bd906145d0565b60405180910390fd5b600360008373ffffffffffffffffffffffffffffffffffffffff1673ffffffffffffffffffffffffffffffffffffffff168152602001908152602001600020549050919050565b600c60003373ffffffffffffffffffffffffffffffffffffffff1673ffffffffffffffffffffffffffffffffffffffff16815260200190815260200160002060009054906101000a900460ff16611299576040517f08c379a000000000000000000000000000000000000000000000000000000000815260040161129090614097565b60405180910390fd5b81600960016101000a81548173ffffffffffffffffffffffffffffffffffffffff021916908373ffffffffffffffffffffffffffffffffffffffff160217905550806006819055505050565b60085481565b6060600180546112fa90613dd2565b80601f016020809104026020016040519081016040528092919081815260200182805461132690613dd2565b80156113735780601f1061134857610100808354040283529160200191611373565b820191906000526020600020905b81548152906001019060200180831161135657829003601f168201915b5050505050905090565b61138f611388612989565b838361303b565b5050565b600c60003373ffffffffffffffffffffffffffffffffffffffff1673ffffffffffffffffffffffffffffffffffffffff16815260200190815260200160002060009054906101000a900460ff1661141f576040517f08c379a000000000000000000000000000000000000000000000000000000000815260040161141690614097565b60405180910390fd5b6000600854148061148957506001600960009054906101000a900460ff16600960009054906101000a900460ff1661145791906140e6565b6114619190614123565b60ff16600e60006008548152602001908152602001600020546114849190614158565b600754145b6114c8576040517f08c379a00000000000000000000000000000000000000000000000000000000081526004016114bf9061463c565b60405180910390fd5b6114d489600754612e62565b600754600e60006008548152602001908152602001600020819055506001600d6000600754815260200190815260200160002060006101000a81548160ff0219169083151502179055506040518060a00160405280600854815260200189898080601f016020809104026020016040519081016040528093929190818152602001838380828437600081840152601f19601f82011690508083019250505050505050815260200187878080601f016020809104026020016040519081016040528093929190818152602001838380828437600081840152601f19601f82011690508083019250505050505050815260200185858080601f016020809104026020016040519081016040528093929190818152602001838380828437600081840152601f19601f82011690508083019250505050505050815260200183838080601f016020809104026020016040519081016040528093929190818152602001838380828437600081840152601f19601f8201169050808301925050505050505081525060106000600754815260200190815260200160002060008201518160000155602082015181600101908161168b91906143d8565b5060408201518160020190816116a191906143d8565b5060608201518160030190816116b791906143d8565b5060808201518160040190816116cd91906143d8565b50905050600860008154809291906116e4906144aa565b9190505550600760008154809291906116fc906144aa565b9190505550505050505050505050565b61171d611717612989565b83612a4a565b61175c576040517f08c379a000000000000000000000000000000000000000000000000000000000815260040161175390613f99565b60405180910390fd5b611768848484846131a7565b50505050565b606061177982613203565b6117b8576040517f08c379a00000000000000000000000000000000000000000000000000000000081526004016117af906146a8565b60405180910390fd5b60606000600960009054906101000a900460ff1690506117d661348d565b600d600086815260200190815260200160002060009054906101000a900460ff1615612028576000601060008781526020019081526020016000206040518060a00160405290816000820154815260200160018201805461183690613dd2565b80601f016020809104026020016040519081016040528092919081815260200182805461186290613dd2565b80156118af5780601f10611884576101008083540402835291602001916118af565b820191906000526020600020905b81548152906001019060200180831161189257829003601f168201915b505050505081526020016002820180546118c890613dd2565b80601f01602080910402602001604051908101604052809291908181526020018280546118f490613dd2565b80156119415780601f1061191657610100808354040283529160200191611941565b820191906000526020600020905b81548152906001019060200180831161192457829003601f168201915b5050505050815260200160038201805461195a90613dd2565b80601f016020809104026020016040519081016040528092919081815260200182805461198690613dd2565b80156119d35780601f106119a8576101008083540402835291602001916119d3565b820191906000526020600020905b8154815290600101906020018083116119b657829003601f168201915b505050505081526020016004820180546119ec90613dd2565b80601f0160208091040260200160405190810160405280929190818152602001828054611a1890613dd2565b8015611a655780601f10611a3a57610100808354040283529160200191611a65565b820191906000526020600020905b815481529060010190602001808311611a4857829003601f168201915b5050505050815250509050606060008060005b8687611a8491906140e6565b60ff168161ffff161015611f735760008161ffff1660018c611aa69190614158565b611ab09190614158565b9050600754811015611e0757600f60008281526020019081526020016000206040518060c00160405290816000820154815260200160018201548152602001600282018054611afe90613dd2565b80601f0160208091040260200160405190810160405280929190818152602001828054611b2a90613dd2565b8015611b775780601f10611b4c57610100808354040283529160200191611b77565b820191906000526020600020905b815481529060010190602001808311611b5a57829003601f168201915b50505050508152602001600382018054611b9090613dd2565b80601f0160208091040260200160405190810160405280929190818152602001828054611bbc90613dd2565b8015611c095780601f10611bde57610100808354040283529160200191611c09565b820191906000526020600020905b815481529060010190602001808311611bec57829003601f168201915b50505050508152602001600482018054611c2290613dd2565b80601f0160208091040260200160405190810160405280929190818152602001828054611c4e90613dd2565b8015611c9b5780601f10611c7057610100808354040283529160200191611c9b565b820191906000526020600020905b815481529060010190602001808311611c7e57829003601f168201915b50505050508152602001600582018054611cb490613dd2565b80601f0160208091040260200160405190810160405280929190818152602001828054611ce090613dd2565b8015611d2d5780601f10611d0257610100808354040283529160200191611d2d565b820191906000526020600020905b815481529060010190602001808311611d1057829003601f168201915b505050505081525050965084600b60009054906101000a900473ffffffffffffffffffffffffffffffffffffffff1673ffffffffffffffffffffffffffffffffffffffff16635b38210b8a87878c6040518563ffffffff1660e01b8152600401611d9a94939291906147bf565b600060405180830381865afa158015611db7573d6000803e3d6000fd5b505050506040513d6000823e3d601f19601f82011682018060405250810190611de0919061487b565b604051602001611df192919061490b565b6040516020818303038152906040529450611f16565b6040518060c0016040528060008152602001876000015181526020018760200151815260200187604001518152602001876060015181526020018760800151815250965084600b60009054906101000a900473ffffffffffffffffffffffffffffffffffffffff1673ffffffffffffffffffffffffffffffffffffffff16635b38210b8a87878c6040518563ffffffff1660e01b8152600401611ead94939291906147bf565b600060405180830381865afa158015611eca573d6000803e3d6000fd5b505050506040513d6000823e3d601f19601f82011682018060405250810190611ef3919061487b565b604051602001611f0492919061490b565b60405160208183030381529060405294505b878889611f2391906140e6565b611f2d919061492f565b60ff168460ff1603611f50578783611f459190614123565b925060009350611f5f565b8784611f5c9190614123565b93505b508080611f6b90614972565b915050611a78565b50600b60009054906101000a900473ffffffffffffffffffffffffffffffffffffffff1673ffffffffffffffffffffffffffffffffffffffff16635b76a829856000015188866040518463ffffffff1660e01b8152600401611fd79392919061499c565b600060405180830381865afa158015611ff4573d6000803e3d6000fd5b505050506040513d6000823e3d601f19601f8201168201806040525081019061201d9190614a7b565b96505050505061234f565b600f60008681526020019081526020016000206040518060c0016040529081600082015481526020016001820154815260200160028201805461206a90613dd2565b80601f016020809104026020016040519081016040528092919081815260200182805461209690613dd2565b80156120e35780601f106120b8576101008083540402835291602001916120e3565b820191906000526020600020905b8154815290600101906020018083116120c657829003601f168201915b505050505081526020016003820180546120fc90613dd2565b80601f016020809104026020016040519081016040528092919081815260200182805461212890613dd2565b80156121755780601f1061214a57610100808354040283529160200191612175565b820191906000526020600020905b81548152906001019060200180831161215857829003601f168201915b5050505050815260200160048201805461218e90613dd2565b80601f01602080910402602001604051908101604052809291908181526020018280546121ba90613dd2565b80156122075780601f106121dc57610100808354040283529160200191612207565b820191906000526020600020905b8154815290600101906020018083116121ea57829003601f168201915b5050505050815260200160058201805461222090613dd2565b80601f016020809104026020016040519081016040528092919081815260200182805461224c90613dd2565b80156122995780601f1061226e57610100808354040283529160200191612299565b820191906000526020600020905b81548152906001019060200180831161227c57829003601f168201915b5050505050815250509050600b60009054906101000a900473ffffffffffffffffffffffffffffffffffffffff1673ffffffffffffffffffffffffffffffffffffffff16631569a7ae83600080856040518563ffffffff1660e01b81526004016123069493929190614aff565b600060405180830381865afa158015612323573d6000803e3d6000fd5b505050506040513d6000823e3d601f19601f8201168201806040525081019061234c9190614a7b565b92505b829350505050919050565b600080600073ffffffffffffffffffffffffffffffffffffffff16600960019054906101000a900473ffffffffffffffffffffffffffffffffffffffff1673ffffffffffffffffffffffffffffffffffffffff16146123f957600960019054906101000a900473ffffffffffffffffffffffffffffffffffffffff166064600654856123e69190614b4b565b6123f09190614bbc565b91509150612401565b600080915091505b915091565b600960009054906101000a900460ff1681565b600c60003373ffffffffffffffffffffffffffffffffffffffff1673ffffffffffffffffffffffffffffffffffffffff16815260200190815260200160002060009054906101000a900460ff166124a5576040517f08c379a000000000000000000000000000000000000000000000000000000000815260040161249c90614097565b60405180910390fd5b600c60008273ffffffffffffffffffffffffffffffffffffffff1673ffffffffffffffffffffffffffffffffffffffff16815260200190815260200160002060009054906101000a900460ff1615600c60008373ffffffffffffffffffffffffffffffffffffffff1673ffffffffffffffffffffffffffffffffffffffff16815260200190815260200160002060006101000a81548160ff02191690831515021790555050565b600f60205280600052604060002060009150905080600001549080600101549080600201805461257b90613dd2565b80601f01602080910402602001604051908101604052809291908181526020018280546125a790613dd2565b80156125f45780601f106125c9576101008083540402835291602001916125f4565b820191906000526020600020905b8154815290600101906020018083116125d757829003601f168201915b50505050509080600301805461260990613dd2565b80601f016020809104026020016040519081016040528092919081815260200182805461263590613dd2565b80156126825780601f1061265757610100808354040283529160200191612682565b820191906000526020600020905b81548152906001019060200180831161266557829003601f168201915b50505050509080600401805461269790613dd2565b80601f01602080910402602001604051908101604052809291908181526020018280546126c390613dd2565b80156127105780601f106126e557610100808354040283529160200191612710565b820191906000526020600020905b8154815290600101906020018083116126f357829003601f168201915b50505050509080600501805461272590613dd2565b80601f016020809104026020016040519081016040528092919081815260200182805461275190613dd2565b801561279e5780601f106127735761010080835404028352916020019161279e565b820191906000526020600020905b81548152906001019060200180831161278157829003601f168201915b5050505050905086565b6000600560008473ffffffffffffffffffffffffffffffffffffffff1673ffffffffffffffffffffffffffffffffffffffff16815260200190815260200160002060008373ffffffffffffffffffffffffffffffffffffffff1673ffffffffffffffffffffffffffffffffffffffff16815260200190815260200160002060009054906101000a900460ff16905092915050565b600c6020528060005260406000206000915054906101000a900460ff1681565b60007f80ac58cd000000000000000000000000000000000000000000000000000000007bffffffffffffffffffffffffffffffffffffffffffffffffffffffff1916827bffffffffffffffffffffffffffffffffffffffffffffffffffffffff1916148061292757507f5b5e139f000000000000000000000000000000000000000000000000000000007bffffffffffffffffffffffffffffffffffffffffffffffffffffffff1916827bffffffffffffffffffffffffffffffffffffffffffffffffffffffff1916145b8061293757506129368261326f565b5b9050919050565b61294781613203565b612986576040517f08c379a000000000000000000000000000000000000000000000000000000000815260040161297d9061453e565b60405180910390fd5b50565b600033905090565b816004600083815260200190815260200160002060006101000a81548173ffffffffffffffffffffffffffffffffffffffff021916908373ffffffffffffffffffffffffffffffffffffffff160217905550808273ffffffffffffffffffffffffffffffffffffffff16612a04836110a5565b73ffffffffffffffffffffffffffffffffffffffff167f8c5be1e5ebec7d5bd14f71427d1e84f3dd0314c0f7b2291e5b200ac8c7c3b92560405160405180910390a45050565b600080612a56836110a5565b90508073ffffffffffffffffffffffffffffffffffffffff168473ffffffffffffffffffffffffffffffffffffffff161480612a985750612a9781856127a8565b5b80612ad657508373ffffffffffffffffffffffffffffffffffffffff16612abe84610771565b73ffffffffffffffffffffffffffffffffffffffff16145b91505092915050565b8273ffffffffffffffffffffffffffffffffffffffff16612aff826110a5565b73ffffffffffffffffffffffffffffffffffffffff1614612b55576040517f08c379a0000000000000000000000000000000000000000000000000000000008152600401612b4c90614c5f565b60405180910390fd5b600073ffffffffffffffffffffffffffffffffffffffff168273ffffffffffffffffffffffffffffffffffffffff1603612bc4576040517f08c379a0000000000000000000000000000000000000000000000000000000008152600401612bbb90614cf1565b60405180910390fd5b612bcf8383836132d9565b612bda600082612991565b6001600360008573ffffffffffffffffffffffffffffffffffffffff1673ffffffffffffffffffffffffffffffffffffffff1681526020019081526020016000206000828254612c2a91906141f8565b925050819055506001600360008473ffffffffffffffffffffffffffffffffffffffff1673ffffffffffffffffffffffffffffffffffffffff1681526020019081526020016000206000828254612c819190614158565b92505081905550816002600083815260200190815260200160002060006101000a81548173ffffffffffffffffffffffffffffffffffffffff021916908373ffffffffffffffffffffffffffffffffffffffff160217905550808273ffffffffffffffffffffffffffffffffffffffff168473ffffffffffffffffffffffffffffffffffffffff167fddf252ad1be2c89b69c2b068fc378daa952ba7f163c4a11628f55a4df523b3ef60405160405180910390a4612d408383836132de565b505050565b6000612d50826110a5565b9050612d5e816000846132d9565b612d69600083612991565b6001600360008373ffffffffffffffffffffffffffffffffffffffff1673ffffffffffffffffffffffffffffffffffffffff1681526020019081526020016000206000828254612db991906141f8565b925050819055506002600083815260200190815260200160002060006101000a81549073ffffffffffffffffffffffffffffffffffffffff021916905581600073ffffffffffffffffffffffffffffffffffffffff168273ffffffffffffffffffffffffffffffffffffffff167fddf252ad1be2c89b69c2b068fc378daa952ba7f163c4a11628f55a4df523b3ef60405160405180910390a4612e5e816000846132de565b5050565b600073ffffffffffffffffffffffffffffffffffffffff168273ffffffffffffffffffffffffffffffffffffffff1603612ed1576040517f08c379a0000000000000000000000000000000000000000000000000000000008152600401612ec890614d5d565b60405180910390fd5b612eda81613203565b15612f1a576040517f08c379a0000000000000000000000000000000000000000000000000000000008152600401612f1190614dc9565b60405180910390fd5b612f26600083836132d9565b6001600360008473ffffffffffffffffffffffffffffffffffffffff1673ffffffffffffffffffffffffffffffffffffffff1681526020019081526020016000206000828254612f769190614158565b92505081905550816002600083815260200190815260200160002060006101000a81548173ffffffffffffffffffffffffffffffffffffffff021916908373ffffffffffffffffffffffffffffffffffffffff160217905550808273ffffffffffffffffffffffffffffffffffffffff16600073ffffffffffffffffffffffffffffffffffffffff167fddf252ad1be2c89b69c2b068fc378daa952ba7f163c4a11628f55a4df523b3ef60405160405180910390a4613037600083836132de565b5050565b8173ffffffffffffffffffffffffffffffffffffffff168373ffffffffffffffffffffffffffffffffffffffff16036130a9576040517f08c379a00000000000000000000000000000000000000000000000000000000081526004016130a090614e35565b60405180910390fd5b80600560008573ffffffffffffffffffffffffffffffffffffffff1673ffffffffffffffffffffffffffffffffffffffff16815260200190815260200160002060008473ffffffffffffffffffffffffffffffffffffffff1673ffffffffffffffffffffffffffffffffffffffff16815260200190815260200160002060006101000a81548160ff0219169083151502179055508173ffffffffffffffffffffffffffffffffffffffff168373ffffffffffffffffffffffffffffffffffffffff167f17307eab39ab6107e8899845ad3d59bd9653f200f220920489ca2b5937696c318360405161319a91906135d3565b60405180910390a3505050565b6131b2848484612adf565b6131be848484846132e3565b6131fd576040517f08c379a00000000000000000000000000000000000000000000000000000000081526004016131f490614ec7565b60405180910390fd5b50505050565b60008073ffffffffffffffffffffffffffffffffffffffff166002600084815260200190815260200160002060009054906101000a900473ffffffffffffffffffffffffffffffffffffffff1673ffffffffffffffffffffffffffffffffffffffff1614159050919050565b60007f01ffc9a7000000000000000000000000000000000000000000000000000000007bffffffffffffffffffffffffffffffffffffffffffffffffffffffff1916827bffffffffffffffffffffffffffffffffffffffffffffffffffffffff1916149050919050565b505050565b505050565b60006133048473ffffffffffffffffffffffffffffffffffffffff1661346a565b1561345d578373ffffffffffffffffffffffffffffffffffffffff1663150b7a0261332d612989565b8786866040518563ffffffff1660e01b815260040161334f9493929190614f31565b6020604051808303816000875af192505050801561338b57506040513d601f19601f820116820180604052508101906133889190614f92565b60015b61340d573d80600081146133bb576040519150601f19603f3d011682016040523d82523d6000602084013e6133c0565b606091505b506000815103613405576040517f08c379a00000000000000000000000000000000000000000000000000000000081526004016133fc90614ec7565b60405180910390fd5b805181602001fd5b63150b7a0260e01b7bffffffffffffffffffffffffffffffffffffffffffffffffffffffff1916817bffffffffffffffffffffffffffffffffffffffffffffffffffffffff191614915050613462565b600190505b949350505050565b6000808273ffffffffffffffffffffffffffffffffffffffff163b119050919050565b6040518060c001604052806000815260200160008152602001606081526020016060815260200160608152602001606081525090565b600073ffffffffffffffffffffffffffffffffffffffff82169050919050565b60006134ee826134c3565b9050919050565b6134fe816134e3565b82525050565b600060208201905061351960008301846134f5565b92915050565b6000604051905090565b600080fd5b600080fd5b60007fffffffff0000000000000000000000000000000000000000000000000000000082169050919050565b61356881613533565b811461357357600080fd5b50565b6000813590506135858161355f565b92915050565b6000602082840312156135a1576135a0613529565b5b60006135af84828501613576565b91505092915050565b60008115159050919050565b6135cd816135b8565b82525050565b60006020820190506135e860008301846135c4565b92915050565b600081519050919050565b600082825260208201905092915050565b60005b8381101561362857808201518184015260208101905061360d565b60008484015250505050565b6000601f19601f8301169050919050565b6000613650826135ee565b61365a81856135f9565b935061366a81856020860161360a565b61367381613634565b840191505092915050565b600060208201905081810360008301526136988184613645565b905092915050565b6000819050919050565b6136b3816136a0565b81146136be57600080fd5b50565b6000813590506136d0816136aa565b92915050565b6000602082840312156136ec576136eb613529565b5b60006136fa848285016136c1565b91505092915050565b61370c816134e3565b811461371757600080fd5b50565b60008135905061372981613703565b92915050565b6000806040838503121561374657613745613529565b5b60006137548582860161371a565b9250506020613765858286016136c1565b9150509250929050565b613778816136a0565b82525050565b600060a082019050613793600083018861376f565b81810360208301526137a58187613645565b905081810360408301526137b98186613645565b905081810360608301526137cd8185613645565b905081810360808301526137e18184613645565b90509695505050505050565b60008060006060848603121561380657613805613529565b5b60006138148682870161371a565b93505060206138258682870161371a565b9250506040613836868287016136c1565b9150509250925092565b6000602082019050613855600083018461376f565b92915050565b600080fd5b600080fd5b600080fd5b60008083601f8401126138805761387f61385b565b5b8235905067ffffffffffffffff81111561389d5761389c613860565b5b6020830191508360018202830111156138b9576138b8613865565b5b9250929050565b600080600080600080600080600060a08a8c0312156138e2576138e1613529565b5b60006138f08c828d0161371a565b99505060208a013567ffffffffffffffff8111156139115761391061352e565b5b61391d8c828d0161386a565b985098505060408a013567ffffffffffffffff8111156139405761393f61352e565b5b61394c8c828d0161386a565b965096505060608a013567ffffffffffffffff81111561396f5761396e61352e565b5b61397b8c828d0161386a565b945094505060808a013567ffffffffffffffff81111561399e5761399d61352e565b5b6139aa8c828d0161386a565b92509250509295985092959850929598565b6000602082840312156139d2576139d1613529565b5b60006139e08482850161371a565b91505092915050565b60006139f4826134c3565b9050919050565b613a04816139e9565b8114613a0f57600080fd5b50565b600081359050613a21816139fb565b92915050565b60008060408385031215613a3e57613a3d613529565b5b6000613a4c85828601613a12565b9250506020613a5d858286016136c1565b9150509250929050565b613a70816135b8565b8114613a7b57600080fd5b50565b600081359050613a8d81613a67565b92915050565b60008060408385031215613aaa57613aa9613529565b5b6000613ab88582860161371a565b9250506020613ac985828601613a7e565b9150509250929050565b600080fd5b7f4e487b7100000000000000000000000000000000000000000000000000000000600052604160045260246000fd5b613b1082613634565b810181811067ffffffffffffffff82111715613b2f57613b2e613ad8565b5b80604052505050565b6000613b4261351f565b9050613b4e8282613b07565b919050565b600067ffffffffffffffff821115613b6e57613b6d613ad8565b5b613b7782613634565b9050602081019050919050565b82818337600083830152505050565b6000613ba6613ba184613b53565b613b38565b905082815260208101848484011115613bc257613bc1613ad3565b5b613bcd848285613b84565b509392505050565b600082601f830112613bea57613be961385b565b5b8135613bfa848260208601613b93565b91505092915050565b60008060008060808587031215613c1d57613c1c613529565b5b6000613c2b8782880161371a565b9450506020613c3c8782880161371a565b9350506040613c4d878288016136c1565b925050606085013567ffffffffffffffff811115613c6e57613c6d61352e565b5b613c7a87828801613bd5565b91505092959194509250565b6000604082019050613c9b60008301856134f5565b613ca8602083018461376f565b9392505050565b600060ff82169050919050565b613cc581613caf565b82525050565b6000602082019050613ce06000830184613cbc565b92915050565b600060c082019050613cfb600083018961376f565b613d08602083018861376f565b8181036040830152613d1a8187613645565b90508181036060830152613d2e8186613645565b90508181036080830152613d428185613645565b905081810360a0830152613d568184613645565b9050979650505050505050565b60008060408385031215613d7a57613d79613529565b5b6000613d888582860161371a565b9250506020613d998582860161371a565b9150509250929050565b7f4e487b7100000000000000000000000000000000000000000000000000000000600052602260045260246000fd5b60006002820490506001821680613dea57607f821691505b602082108103613dfd57613dfc613da3565b5b50919050565b7f4552433732313a20617070726f76616c20746f2063757272656e74206f776e6560008201527f7200000000000000000000000000000000000000000000000000000000000000602082015250565b6000613e5f6021836135f9565b9150613e6a82613e03565b604082019050919050565b60006020820190508181036000830152613e8e81613e52565b9050919050565b7f4552433732313a20617070726f76652063616c6c6572206973206e6f7420746f60008201527f6b656e206f776e6572206e6f7220617070726f76656420666f7220616c6c0000602082015250565b6000613ef1603e836135f9565b9150613efc82613e95565b604082019050919050565b60006020820190508181036000830152613f2081613ee4565b9050919050565b7f4552433732313a2063616c6c6572206973206e6f7420746f6b656e206f776e6560008201527f72206e6f7220617070726f766564000000000000000000000000000000000000602082015250565b6000613f83602e836135f9565b9150613f8e82613f27565b604082019050919050565b60006020820190508181036000830152613fb281613f76565b9050919050565b7f596f752063616e206f6e6c79206275726e20796f7572206f776e20746f6b656e60008201527f7300000000000000000000000000000000000000000000000000000000000000602082015250565b60006140156021836135f9565b915061402082613fb9565b604082019050919050565b6000602082019050818103600083015261404481614008565b9050919050565b7f4e6f7420616e2041646d696e0000000000000000000000000000000000000000600082015250565b6000614081600c836135f9565b915061408c8261404b565b602082019050919050565b600060208201905081810360008301526140b081614074565b9050919050565b7f4e487b7100000000000000000000000000000000000000000000000000000000600052601160045260246000fd5b60006140f182613caf565b91506140fc83613caf565b925082820261410a81613caf565b915080821461411c5761411b6140b7565b5b5092915050565b600061412e82613caf565b915061413983613caf565b9250828201905060ff811115614152576141516140b7565b5b92915050565b6000614163826136a0565b915061416e836136a0565b9250828201905080821115614186576141856140b7565b5b92915050565b7f4e65787420746f6b656e2069732061205061746368776f726b00000000000000600082015250565b60006141c26019836135f9565b91506141cd8261418c565b602082019050919050565b600060208201905081810360008301526141f1816141b5565b9050919050565b6000614203826136a0565b915061420e836136a0565b9250828203905081811115614226576142256140b7565b5b92915050565b60008190508160005260206000209050919050565b60006020601f8301049050919050565b600082821b905092915050565b60006008830261428e7fffffffffffffffffffffffffffffffffffffffffffffffffffffffffffffffff82614251565b6142988683614251565b95508019841693508086168417925050509392505050565b6000819050919050565b60006142d56142d06142cb846136a0565b6142b0565b6136a0565b9050919050565b6000819050919050565b6142ef836142ba565b6143036142fb826142dc565b84845461425e565b825550505050565b600090565b61431861430b565b6143238184846142e6565b505050565b5b818110156143475761433c600082614310565b600181019050614329565b5050565b601f82111561438c5761435d8161422c565b61436684614241565b81016020851015614375578190505b61438961438185614241565b830182614328565b50505b505050565b600082821c905092915050565b60006143af60001984600802614391565b1980831691505092915050565b60006143c8838361439e565b9150826002028217905092915050565b6143e1826135ee565b67ffffffffffffffff8111156143fa576143f9613ad8565b5b6144048254613dd2565b61440f82828561434b565b600060209050601f8311600181146144425760008415614430578287015190505b61443a85826143bc565b8655506144a2565b601f1984166144508661422c565b60005b8281101561447857848901518255600182019150602085019450602081019050614453565b868310156144955784890151614491601f89168261439e565b8355505b6001600288020188555050505b505050505050565b60006144b5826136a0565b91507fffffffffffffffffffffffffffffffffffffffffffffffffffffffffffffffff82036144e7576144e66140b7565b5b600182019050919050565b7f4552433732313a20696e76616c696420746f6b656e2049440000000000000000600082015250565b60006145286018836135f9565b9150614533826144f2565b602082019050919050565b600060208201905081810360008301526145578161451b565b9050919050565b7f4552433732313a2061646472657373207a65726f206973206e6f74206120766160008201527f6c6964206f776e65720000000000000000000000000000000000000000000000602082015250565b60006145ba6029836135f9565b91506145c58261455e565b604082019050919050565b600060208201905081810360008301526145e9816145ad565b9050919050565b7f4e65787420746f6b656e20697320612050617463680000000000000000000000600082015250565b60006146266015836135f9565b9150614631826145f0565b602082019050919050565b6000602082019050818103600083015261465581614619565b9050919050565b7f546f6b656e20696e6578697374616e7400000000000000000000000000000000600082015250565b60006146926010836135f9565b915061469d8261465c565b602082019050919050565b600060208201905081810360008301526146c181614685565b9050919050565b6146d1816136a0565b82525050565b600082825260208201905092915050565b60006146f3826135ee565b6146fd81856146d7565b935061470d81856020860161360a565b61471681613634565b840191505092915050565b600060c08301600083015161473960008601826146c8565b50602083015161474c60208601826146c8565b506040830151848203604086015261476482826146e8565b9150506060830151848203606086015261477e82826146e8565b9150506080830151848203608086015261479882826146e8565b91505060a083015184820360a08601526147b282826146e8565b9150508091505092915050565b60006080820190506147d46000830187613cbc565b6147e16020830186613cbc565b6147ee6040830185613cbc565b81810360608301526148008184614721565b905095945050505050565b600061481e61481984613b53565b613b38565b90508281526020810184848401111561483a57614839613ad3565b5b61484584828561360a565b509392505050565b600082601f8301126148625761486161385b565b5b815161487284826020860161480b565b91505092915050565b60006020828403121561489157614890613529565b5b600082015167ffffffffffffffff8111156148af576148ae61352e565b5b6148bb8482850161484d565b91505092915050565b600081519050919050565b600081905092915050565b60006148e5826148c4565b6148ef81856148cf565b93506148ff81856020860161360a565b80840191505092915050565b600061491782856148da565b915061492382846148da565b91508190509392505050565b600061493a82613caf565b915061494583613caf565b9250828203905060ff81111561495e5761495d6140b7565b5b92915050565b600061ffff82169050919050565b600061497d82614964565b915061ffff8203614991576149906140b7565b5b600182019050919050565b60006060820190506149b1600083018661376f565b6149be6020830185613cbc565b81810360408301526149d08184613645565b9050949350505050565b600067ffffffffffffffff8211156149f5576149f4613ad8565b5b6149fe82613634565b9050602081019050919050565b6000614a1e614a19846149da565b613b38565b905082815260208101848484011115614a3a57614a39613ad3565b5b614a4584828561360a565b509392505050565b600082601f830112614a6257614a6161385b565b5b8151614a72848260208601614a0b565b91505092915050565b600060208284031215614a9157614a90613529565b5b600082015167ffffffffffffffff811115614aaf57614aae61352e565b5b614abb84828501614a4d565b91505092915050565b6000819050919050565b6000614ae9614ae4614adf84614ac4565b6142b0565b613caf565b9050919050565b614af981614ace565b82525050565b6000608082019050614b146000830187613cbc565b614b216020830186614af0565b614b2e6040830185614af0565b8181036060830152614b408184614721565b905095945050505050565b6000614b56826136a0565b9150614b61836136a0565b9250828202614b6f816136a0565b91508282048414831517614b8657614b856140b7565b5b5092915050565b7f4e487b7100000000000000000000000000000000000000000000000000000000600052601260045260246000fd5b6000614bc7826136a0565b9150614bd2836136a0565b925082614be257614be1614b8d565b5b828204905092915050565b7f4552433732313a207472616e736665722066726f6d20696e636f72726563742060008201527f6f776e6572000000000000000000000000000000000000000000000000000000602082015250565b6000614c496025836135f9565b9150614c5482614bed565b604082019050919050565b60006020820190508181036000830152614c7881614c3c565b9050919050565b7f4552433732313a207472616e7366657220746f20746865207a65726f2061646460008201527f7265737300000000000000000000000000000000000000000000000000000000602082015250565b6000614cdb6024836135f9565b9150614ce682614c7f565b604082019050919050565b60006020820190508181036000830152614d0a81614cce565b9050919050565b7f4552433732313a206d696e7420746f20746865207a65726f2061646472657373600082015250565b6000614d476020836135f9565b9150614d5282614d11565b602082019050919050565b60006020820190508181036000830152614d7681614d3a565b9050919050565b7f4552433732313a20746f6b656e20616c7265616479206d696e74656400000000600082015250565b6000614db3601c836135f9565b9150614dbe82614d7d565b602082019050919050565b60006020820190508181036000830152614de281614da6565b9050919050565b7f4552433732313a20617070726f766520746f2063616c6c657200000000000000600082015250565b6000614e1f6019836135f9565b9150614e2a82614de9565b602082019050919050565b60006020820190508181036000830152614e4e81614e12565b9050919050565b7f4552433732313a207472616e7366657220746f206e6f6e20455243373231526560008201527f63656976657220696d706c656d656e7465720000000000000000000000000000602082015250565b6000614eb16032836135f9565b9150614ebc82614e55565b604082019050919050565b60006020820190508181036000830152614ee081614ea4565b9050919050565b600082825260208201905092915050565b6000614f03826148c4565b614f0d8185614ee7565b9350614f1d81856020860161360a565b614f2681613634565b840191505092915050565b6000608082019050614f4660008301876134f5565b614f5360208301866134f5565b614f60604083018561376f565b8181036060830152614f728184614ef8565b905095945050505050565b600081519050614f8c8161355f565b92915050565b600060208284031215614fa857614fa7613529565b5b6000614fb684828501614f7d565b9150509291505056fea26469706673582212204d8b50ca62508d428081cb690ba9271e4c03c5d3f233abd28427ea6580059b5064736f6c63430008110033",
  "immutableReferences": {},
  "source": "// SPDX-License-Identifier: MIT\n\npragma solidity >= 0.8.17;\n\nimport \"@openzeppelin/contracts/token/ERC721/ERC721.sol\";\nimport \"@manifoldxyz/royalty-registry-solidity/contracts/specs/IEIP2981.sol\";\nimport \"./IPatchwork.sol\";\nimport \"./IPatchworkMetadata.sol\";\n\ncontract Patchwork is ERC721, IPatchwork{\n    \n    uint256 private _royaltyAmount; //in % \n    uint256 public _tokenId;\n    uint256 public _patchworkCounter;\n    uint8 public _size;\n\n    address payable private _royalties_recipient;\n    address public _patchMetadataAddress;\n    address public _patchworkMetadataAddress;\n\n    mapping(address => bool) public _isAdmin;\n    mapping(uint256 => bool) public _isPatchwork;\n\n    mapping(uint256 => uint256) public _patchworkToTokenIdMapping;\n\n    mapping(uint256 => Patch) public _tokenIdToPatch;\n    mapping(uint256 => PWork) public _tokenIdIdToPatchwork; // duplicate with other mapping - can we do better?\n    \n    constructor () ERC721(\"Patchwork\", \"Patchwork\") {\n        _isAdmin[msg.sender] = true;\n        _royalties_recipient = payable(msg.sender);\n        _royaltyAmount = 10;\n        _patchworkCounter = 0;\n        _tokenId = 0;\n        _size = 5;\n    } \n\n    function supportsInterface(bytes4 interfaceId)\n        public\n        view\n        virtual\n        override(ERC721)\n        returns (bool)\n    {\n        return\n        ERC721.supportsInterface(interfaceId) ||\n        interfaceId == type(IEIP2981).interfaceId ||\n        super.supportsInterface(interfaceId);\n    }\n\n    modifier adminOnly{\n        require(_isAdmin[msg.sender], \"Not an Admin\");\n        _;\n    }\n\n    function adminMintPatch(\n        address account,\n        string calldata colors,\n        string calldata shapes,\n        string calldata borders,\n        string calldata borderColors\n    ) external adminOnly{\n        require(\n            _patchworkCounter != 0 &&\n            _tokenId != _patchworkToTokenIdMapping[_patchworkCounter] + (_size * _size + 1),\n            'Next token is a Patchwork'\n            );\n        _mint(account, _tokenId);\n        _tokenIdToPatch[_tokenId] = Patch(\n            _tokenId,\n             _patchworkToTokenIdMapping[_patchworkCounter - 1],\n            colors,\n            shapes,\n            borders,\n            borderColors\n        );\n        _tokenId ++;\n    }\n\n    function adminMintPatchwork(\n        address account,\n        string calldata defaultColors,\n        string calldata defaultShapes,\n        string calldata defaultBorders,\n        string calldata defaultBordersColor\n    ) external adminOnly{\n        require(\n            _patchworkCounter == 0 ||\n            _tokenId == _patchworkToTokenIdMapping[_patchworkCounter] + (_size * _size + 1),\n            'Next token is a Patch'\n         );\n        _mint(account, _tokenId);\n        _patchworkToTokenIdMapping[_patchworkCounter] = _tokenId;\n        _isPatchwork[_tokenId] = true;\n        _tokenIdIdToPatchwork[_tokenId] = PWork(\n            _patchworkCounter,\n            defaultColors,\n            defaultShapes,\n            defaultBorders,\n            defaultBordersColor\n        );\n        _patchworkCounter ++;\n        _tokenId ++;\n    }\n\n    function toggleAdmin(address admin) external adminOnly{\n        _isAdmin[admin] = !_isAdmin[admin];\n    }\n\n    function setPatchworkMetadataAddress(address patchworkMetadataAddress) external adminOnly{\n        _patchworkMetadataAddress = patchworkMetadataAddress;\n    }\n\n    function tokenURI(uint256 tokenId) public view virtual override returns (string memory) {\n        require(_exists(tokenId), \"Token inexistant\");\n        string memory uri;\n        uint8 size = _size;\n        Patch memory patchToRender;\n        if(_isPatchwork[tokenId]){\n            PWork memory patchwork = _tokenIdIdToPatchwork[tokenId];\n            bytes memory patches; \n            uint8 xCounter = 0;\n            uint8 yCounter = 0;\n            for(uint16 i = 0; i < (size * size ); i++){\n                uint256 tokenToRender = tokenId + 1 + i;\n                if(tokenToRender < _tokenId){\n                    // token already exists\n                    patchToRender = _tokenIdToPatch[tokenToRender];\n                    patches = abi.encodePacked(\n                        patches,\n                        IPatchworkMetadata(\n                            _patchworkMetadataAddress\n                        ).generatePatchSVG(size, xCounter, yCounter, patchToRender)\n                    );\n                }\n                else{\n                    // token doesn't exist\n                    patchToRender = Patch(0, patchwork.id, patchwork.defaultColors, patchwork.shapes, patchwork.borders, patchwork.bordersColor);\n                    patches = abi.encodePacked(\n                        patches, \n                        IPatchworkMetadata(\n                            _patchworkMetadataAddress\n                        ).generatePatchSVG(size, xCounter, yCounter, patchToRender));\n                }\n                if(xCounter == (size * size - size)){\n                    yCounter += size;\n                    xCounter = 0;\n                }else{\n                    xCounter += size;\n                }\n            }\n            uri = IPatchworkMetadata(_patchworkMetadataAddress).getPatchwork(patchwork.id, size, string(patches));\n        }else{\n            patchToRender = _tokenIdToPatch[tokenId];\n            uri = IPatchworkMetadata(_patchworkMetadataAddress).getPatch(size, 0, 0, patchToRender);\n        }\n        return uri;\n    }\n\n    function burn(uint256 tokenId) public {\n        require(ownerOf(tokenId)== msg.sender, \"You can only burn your own tokens\");\n        _burn(tokenId);\n    }\n\n    function setRoyalties(address payable _recipient, uint256 _royaltyPerCent) external adminOnly {\n        _royalties_recipient = _recipient;\n        _royaltyAmount = _royaltyPerCent;\n    }\n\n    function royaltyInfo(uint256 salePrice) external view returns (address, uint256) {\n        if(_royalties_recipient != address(0)){\n            return (_royalties_recipient, (salePrice * _royaltyAmount) / 100 );\n        }\n        return (address(0), 0);\n    }\n}   ",
  "sourcePath": "/Users/bct/Documents/Dev/NFT_dev/Patchwork/contracts/Patchwork.sol",
  "compiler": {
    "name": "solc",
    "version": "0.8.17+commit.8df45f5f.Emscripten.clang"
  },
  "schemaVersion": "3.4.4",
  "updatedAt": "2022-11-01T23:58:51.478Z",
  "devdoc": {
    "kind": "dev",
    "methods": {
      "approve(address,uint256)": {
        "details": "See {IERC721-approve}."
      },
      "balanceOf(address)": {
        "details": "See {IERC721-balanceOf}."
      },
      "getApproved(uint256)": {
        "details": "See {IERC721-getApproved}."
      },
      "isApprovedForAll(address,address)": {
        "details": "See {IERC721-isApprovedForAll}."
      },
      "name()": {
        "details": "See {IERC721Metadata-name}."
      },
      "ownerOf(uint256)": {
        "details": "See {IERC721-ownerOf}."
      },
      "safeTransferFrom(address,address,uint256)": {
        "details": "See {IERC721-safeTransferFrom}."
      },
      "safeTransferFrom(address,address,uint256,bytes)": {
        "details": "See {IERC721-safeTransferFrom}."
      },
      "setApprovalForAll(address,bool)": {
        "details": "See {IERC721-setApprovalForAll}."
      },
      "supportsInterface(bytes4)": {
        "details": "See {IERC165-supportsInterface}."
      },
      "symbol()": {
        "details": "See {IERC721Metadata-symbol}."
      },
      "tokenURI(uint256)": {
        "details": "See {IERC721Metadata-tokenURI}."
      },
      "transferFrom(address,address,uint256)": {
        "details": "See {IERC721-transferFrom}."
      }
    },
    "version": 1
  },
  "userdoc": {
    "kind": "user",
    "methods": {},
    "version": 1
  }
}