{
  "contractName": "PatchworkMetadata",
  "abi": [
    {
      "inputs": [],
      "stateMutability": "nonpayable",
      "type": "constructor"
    },
    {
      "inputs": [
        {
          "internalType": "address",
          "name": "admin",
          "type": "address"
        }
      ],
      "name": "toggleADmin",
      "outputs": [],
      "stateMutability": "nonpayable",
      "type": "function"
    },
    {
      "inputs": [
        {
          "internalType": "uint8",
          "name": "size",
          "type": "uint8"
        },
        {
          "internalType": "uint8",
          "name": "xmult",
          "type": "uint8"
        },
        {
          "internalType": "uint8",
          "name": "ymult",
          "type": "uint8"
        },
        {
          "components": [
            {
              "internalType": "uint256",
              "name": "id",
              "type": "uint256"
            },
            {
              "internalType": "uint256",
              "name": "associatedPatchwork",
              "type": "uint256"
            },
            {
              "internalType": "string",
              "name": "colors",
              "type": "string"
            },
            {
              "internalType": "string",
              "name": "shapes",
              "type": "string"
            },
            {
              "internalType": "string",
              "name": "borders",
              "type": "string"
            },
            {
              "internalType": "string",
              "name": "borderColors",
              "type": "string"
            }
          ],
          "internalType": "struct IPatchwork.Patch",
          "name": "patch",
          "type": "tuple"
        }
      ],
      "name": "generatePatchSVG",
      "outputs": [
        {
          "internalType": "bytes",
          "name": "",
          "type": "bytes"
        }
      ],
      "stateMutability": "pure",
      "type": "function"
    },
    {
      "inputs": [
        {
          "internalType": "string",
          "name": "colors",
          "type": "string"
        },
        {
          "internalType": "uint256",
          "name": "index",
          "type": "uint256"
        },
        {
          "internalType": "uint8",
          "name": "length",
          "type": "uint8"
        }
      ],
      "name": "getInfo",
      "outputs": [
        {
          "internalType": "string",
          "name": "",
          "type": "string"
        }
      ],
      "stateMutability": "pure",
      "type": "function"
    },
    {
      "inputs": [
        {
          "internalType": "uint8",
          "name": "size",
          "type": "uint8"
        },
        {
          "internalType": "uint8",
          "name": "xmult",
          "type": "uint8"
        },
        {
          "internalType": "uint8",
          "name": "ymult",
          "type": "uint8"
        },
        {
          "components": [
            {
              "internalType": "uint256",
              "name": "id",
              "type": "uint256"
            },
            {
              "internalType": "uint256",
              "name": "associatedPatchwork",
              "type": "uint256"
            },
            {
              "internalType": "string",
              "name": "colors",
              "type": "string"
            },
            {
              "internalType": "string",
              "name": "shapes",
              "type": "string"
            },
            {
              "internalType": "string",
              "name": "borders",
              "type": "string"
            },
            {
              "internalType": "string",
              "name": "borderColors",
              "type": "string"
            }
          ],
          "internalType": "struct IPatchwork.Patch",
          "name": "patch",
          "type": "tuple"
        }
      ],
      "name": "getPatch",
      "outputs": [
        {
          "internalType": "string",
          "name": "",
          "type": "string"
        }
      ],
      "stateMutability": "view",
      "type": "function"
    },
    {
      "inputs": [
        {
          "internalType": "uint256",
          "name": "patchwork",
          "type": "uint256"
        },
        {
          "internalType": "uint8",
          "name": "size",
          "type": "uint8"
        },
        {
          "internalType": "string",
          "name": "patches",
          "type": "string"
        }
      ],
      "name": "getPatchwork",
      "outputs": [
        {
          "internalType": "string",
          "name": "",
          "type": "string"
        }
      ],
      "stateMutability": "view",
      "type": "function"
    }
  ],
  "bytecode": "0x60806040526040518060400160405280600681526020017f3c2f7376673e0000000000000000000000000000000000000000000000000000815250600190816200004a919062000570565b506040518060400160405280600681526020017f61616161616100000000000000000000000000000000000000000000000000008152506002908162000091919062000570565b503480156200009f57600080fd5b506040518060a0016040528060405180606001604052806024815260200162002dc26024913981526020016040518060400160405280601281526020017f222c20226465736372697074696f6e223a220000000000000000000000000000815250815260200160405180608001604052806044815260200162002d7e6044913981526020016040518060400160405280601181526020017f222c202261747472696275746573223a5b00000000000000000000000000000081525081526020016040518060400160405280600281526020017f5d7d0000000000000000000000000000000000000000000000000000000000008152508152506000906005620001aa92919062000209565b506001600360003373ffffffffffffffffffffffffffffffffffffffff1673ffffffffffffffffffffffffffffffffffffffff16815260200190815260200160002060006101000a81548160ff02191690831515021790555062000657565b82805482825590600052602060002090810192821562000256579160200282015b828111156200025557825182908162000244919062000570565b50916020019190600101906200022a565b5b50905062000265919062000269565b5090565b5b808211156200028d576000818162000283919062000291565b506001016200026a565b5090565b5080546200029f906200035f565b6000825580601f10620002b35750620002d4565b601f016020900490600052602060002090810190620002d39190620002d7565b5b50565b5b80821115620002f2576000816000905550600101620002d8565b5090565b600081519050919050565b7f4e487b7100000000000000000000000000000000000000000000000000000000600052604160045260246000fd5b7f4e487b7100000000000000000000000000000000000000000000000000000000600052602260045260246000fd5b600060028204905060018216806200037857607f821691505b6020821081036200038e576200038d62000330565b5b50919050565b60008190508160005260206000209050919050565b60006020601f8301049050919050565b600082821b905092915050565b600060088302620003f87fffffffffffffffffffffffffffffffffffffffffffffffffffffffffffffffff82620003b9565b620004048683620003b9565b95508019841693508086168417925050509392505050565b6000819050919050565b6000819050919050565b6000620004516200044b62000445846200041c565b62000426565b6200041c565b9050919050565b6000819050919050565b6200046d8362000430565b620004856200047c8262000458565b848454620003c6565b825550505050565b600090565b6200049c6200048d565b620004a981848462000462565b505050565b5b81811015620004d157620004c560008262000492565b600181019050620004af565b5050565b601f8211156200052057620004ea8162000394565b620004f584620003a9565b8101602085101562000505578190505b6200051d6200051485620003a9565b830182620004ae565b50505b505050565b600082821c905092915050565b6000620005456000198460080262000525565b1980831691505092915050565b600062000560838362000532565b9150826002028217905092915050565b6200057b82620002f6565b67ffffffffffffffff81111562000597576200059662000301565b5b620005a382546200035f565b620005b0828285620004d5565b600060209050601f831160018114620005e85760008415620005d3578287015190505b620005df858262000552565b8655506200064f565b601f198416620005f88662000394565b60005b828110156200062257848901518255600182019150602085019450602081019050620005fb565b868310156200064257848901516200063e601f89168262000532565b8355505b6001600288020188555050505b505050505050565b61271780620006676000396000f3fe608060405234801561001057600080fd5b50600436106100575760003560e01c80631569a7ae1461005c5780635b38210b1461008c5780635b76a829146100bc57806363ba33f1146100ec57806368798d221461011c575b600080fd5b61007660048036038101906100719190610f83565b610138565b6040516100839190611096565b60405180910390f35b6100a660048036038101906100a1919061133d565b61033d565b6040516100b39190611415565b60405180910390f35b6100d660048036038101906100d19190611497565b6104d4565b6040516100e39190611096565b60405180910390f35b6101066004803603810190610101919061150b565b6106d5565b6040516101139190611096565b60405180910390f35b610136600480360381019061013191906115d8565b6107ed565b005b606060006101488660ff16610920565b6101548760ff16610920565b60405160200161016592919061174b565b604051602081830303815290604052905060008060008154811061018c5761018b611790565b5b906000526020600020016101a38560000135610920565b6040516020016101b4929190611903565b60405160208183030381529060405260006001815481106101d8576101d7611790565b5b906000526020600020016040516020016101f291906119a4565b604051602081830303815290604052600060028154811061021657610215611790565b5b90600052602060002001610261856102398c8c8c8c610234906119c6565b61033d565b600160405160200161024d93929190611a15565b604051602081830303815290604052610a80565b604051602001610272929190611a46565b604051602081830303815290604052600060038154811061029657610295611790565b5b906000526020600020016102ad8860200135610920565b6040516020016102be929190611b9a565b60405160208183030381529060405260006004815481106102e2576102e1611790565b5b906000526020600020016040516020016102fc9190611bdf565b60405160208183030381529060405260405160200161031f959493929190611bf6565b60405160208183030381529060405290508092505050949350505050565b6060600060405180602001604052806000815250905060008060005b8860ff168160ff1610156104c55760005b8960ff168160ff1610156104b157600061038e88604001518661ffff1660066106d5565b905060006103a68960a001518761ffff1660066106d5565b905060006103be8a608001518761ffff1660016106d5565b905060006103d68b606001518861ffff1660016106d5565b90506006886103e59190611c7e565b975086806103f290611cb4565b97505060607f0b42b6393c1f53060fe3ddbfcd7aadcca894465a5a438f69c87d790b2299b9b282805190602001200361044f576104488e886104349190611cde565b8e886104409190611cde565b878688610bf8565b9050610475565b6104728e8861045e9190611cde565b8e8861046a9190611cde565b878688610dbc565b90505b8981604051602001610488929190611d13565b6040516020818303038152906040529950505050505080806104a990611d37565b91505061036a565b5080806104bd90611d37565b915050610359565b50829350505050949350505050565b606060006104ef85866104e79190611d60565b60ff16610920565b61050686876104fe9190611d60565b60ff16610920565b604051602001610517929190611de9565b604051602081830303815290604052905060008060008154811061053e5761053d611790565b5b9060005260206000200161055188610920565b604051602001610562929190611e7a565b604051602081830303815290604052600060018154811061058657610585611790565b5b906000526020600020016040516020016105a09190611f1b565b60405160208183030381529060405260006002815481106105c4576105c3611790565b5b906000526020600020016105fd85898960016040516020016105e99493929190611f62565b604051602081830303815290604052610a80565b60405160200161060e929190611a46565b604051602081830303815290604052600060038154811061063257610631611790565b5b906000526020600020016106458b610920565b604051602001610656929190612007565b604051602081830303815290604052600060048154811061067a57610679611790565b5b906000526020600020016040516020016106949190611bdf565b6040516020818303038152906040526040516020016106b7959493929190611bf6565b60405160208183030381529060405290508092505050949350505050565b606060008490506000848460ff16866106ee919061204c565b6106f89190612080565b67ffffffffffffffff811115610711576107106110bd565b5b6040519080825280601f01601f1916602001820160405280156107435781602001600182028036833780820191505090505b50905060008590505b8460ff168661075b919061204c565b8110156107e05782818151811061077557610774611790565b5b602001015160f81c60f81b82878361078d9190612080565b8151811061079e5761079d611790565b5b60200101907effffffffffffffffffffffffffffffffffffffffffffffffffffffffffffff1916908160001a90535080806107d8906120b4565b91505061074c565b5080925050509392505050565b600360003373ffffffffffffffffffffffffffffffffffffffff1673ffffffffffffffffffffffffffffffffffffffff16815260200190815260200160002060009054906101000a900460ff16610879576040517f08c379a000000000000000000000000000000000000000000000000000000000815260040161087090612148565b60405180910390fd5b600360008273ffffffffffffffffffffffffffffffffffffffff1673ffffffffffffffffffffffffffffffffffffffff16815260200190815260200160002060009054906101000a900460ff1615600360008373ffffffffffffffffffffffffffffffffffffffff1673ffffffffffffffffffffffffffffffffffffffff16815260200190815260200160002060006101000a81548160ff02191690831515021790555050565b606060008203610967576040518060400160405280600181526020017f30000000000000000000000000000000000000000000000000000000000000008152509050610a7b565b600082905060005b60008214610999578080610982906120b4565b915050600a826109929190612197565b915061096f565b60008167ffffffffffffffff8111156109b5576109b46110bd565b5b6040519080825280601f01601f1916602001820160405280156109e75781602001600182028036833780820191505090505b5090505b60008514610a7457600182610a009190612080565b9150600a85610a0f91906121c8565b6030610a1b919061204c565b60f81b818381518110610a3157610a30611790565b5b60200101907effffffffffffffffffffffffffffffffffffffffffffffffffffffffffffff1916908160001a905350600a85610a6d9190612197565b94506109eb565b8093505050505b919050565b60606000825103610aa257604051806020016040528060008152509050610bf3565b60006040518060600160405280604081526020016126a26040913990506000600360028551610ad1919061204c565b610adb9190612197565b6004610ae791906121f9565b90506000602082610af8919061204c565b67ffffffffffffffff811115610b1157610b106110bd565b5b6040519080825280601f01601f191660200182016040528015610b435781602001600182028036833780820191505090505b509050818152600183018586518101602084015b81831015610bb2576003830192508251603f8160121c168501518253600182019150603f81600c1c168501518253600182019150603f8160061c168501518253600182019150603f8116850151825360018201915050610b57565b600389510660018114610bcc5760028114610bdc57610be7565b613d3d60f01b6002830352610be7565b603d60f81b60018303525b50505050508093505050505b919050565b60608060607f83847cf31c36389df832d0d4d3df7cf28f211e3f83173e5c157bab31573d61f3858051906020012014610c32576000610c35565b60015b15610c99576040518060400160405280600481526020017f2e34373500000000000000000000000000000000000000000000000000000000815250905083604051602001610c8391906122d3565b6040516020818303038152906040529150610d0a565b6040518060400160405280600281526020017f2e3500000000000000000000000000000000000000000000000000000000000081525090506040518060400160405280600381526020017f272f3e000000000000000000000000000000000000000000000000000000000081525091505b6000610d188960ff16610920565b82604051602001610d2a929190612300565b604051602081830303815290604052610d458960ff16610920565b83604051602001610d57929190612300565b60405160208183030381529060405283604051602001610d7791906123bc565b6040516020818303038152906040528986604051602001610d9c959493929190612481565b604051602081830303815290604052905080935050505095945050505050565b60608060607f83847cf31c36389df832d0d4d3df7cf28f211e3f83173e5c157bab31573d61f3858051906020012003610e4e576040518060400160405280600581526020017f302e393735000000000000000000000000000000000000000000000000000000815250905083604051602001610e3891906122d3565b6040516020818303038152906040529150610ebf565b6040518060400160405280600181526020017f310000000000000000000000000000000000000000000000000000000000000081525090506040518060400160405280600381526020017f272f3e000000000000000000000000000000000000000000000000000000000081525091505b6000610ecd8960ff16610920565b610ed98960ff16610920565b83848a87604051602001610ef296959493929190612612565b604051602081830303815290604052905080935050505095945050505050565b6000604051905090565b600080fd5b600080fd5b600060ff82169050919050565b610f3c81610f26565b8114610f4757600080fd5b50565b600081359050610f5981610f33565b92915050565b600080fd5b600060c08284031215610f7a57610f79610f5f565b5b81905092915050565b60008060008060808587031215610f9d57610f9c610f1c565b5b6000610fab87828801610f4a565b9450506020610fbc87828801610f4a565b9350506040610fcd87828801610f4a565b925050606085013567ffffffffffffffff811115610fee57610fed610f21565b5b610ffa87828801610f64565b91505092959194509250565b600081519050919050565b600082825260208201905092915050565b60005b83811015611040578082015181840152602081019050611025565b60008484015250505050565b6000601f19601f8301169050919050565b600061106882611006565b6110728185611011565b9350611082818560208601611022565b61108b8161104c565b840191505092915050565b600060208201905081810360008301526110b0818461105d565b905092915050565b600080fd5b7f4e487b7100000000000000000000000000000000000000000000000000000000600052604160045260246000fd5b6110f58261104c565b810181811067ffffffffffffffff82111715611114576111136110bd565b5b80604052505050565b6000611127610f12565b905061113382826110ec565b919050565b600080fd5b6000819050919050565b6111508161113d565b811461115b57600080fd5b50565b60008135905061116d81611147565b92915050565b600080fd5b600080fd5b600067ffffffffffffffff821115611198576111976110bd565b5b6111a18261104c565b9050602081019050919050565b82818337600083830152505050565b60006111d06111cb8461117d565b61111d565b9050828152602081018484840111156111ec576111eb611178565b5b6111f78482856111ae565b509392505050565b600082601f83011261121457611213611173565b5b81356112248482602086016111bd565b91505092915050565b600060c08284031215611243576112426110b8565b5b61124d60c061111d565b9050600061125d8482850161115e565b60008301525060206112718482850161115e565b602083015250604082013567ffffffffffffffff81111561129557611294611138565b5b6112a1848285016111ff565b604083015250606082013567ffffffffffffffff8111156112c5576112c4611138565b5b6112d1848285016111ff565b606083015250608082013567ffffffffffffffff8111156112f5576112f4611138565b5b611301848285016111ff565b60808301525060a082013567ffffffffffffffff81111561132557611324611138565b5b611331848285016111ff565b60a08301525092915050565b6000806000806080858703121561135757611356610f1c565b5b600061136587828801610f4a565b945050602061137687828801610f4a565b935050604061138787828801610f4a565b925050606085013567ffffffffffffffff8111156113a8576113a7610f21565b5b6113b48782880161122d565b91505092959194509250565b600081519050919050565b600082825260208201905092915050565b60006113e7826113c0565b6113f181856113cb565b9350611401818560208601611022565b61140a8161104c565b840191505092915050565b6000602082019050818103600083015261142f81846113dc565b905092915050565b600080fd5b600080fd5b60008083601f84011261145757611456611173565b5b8235905067ffffffffffffffff81111561147457611473611437565b5b6020830191508360018202830111156114905761148f61143c565b5b9250929050565b600080600080606085870312156114b1576114b0610f1c565b5b60006114bf8782880161115e565b94505060206114d087828801610f4a565b935050604085013567ffffffffffffffff8111156114f1576114f0610f21565b5b6114fd87828801611441565b925092505092959194509250565b60008060006060848603121561152457611523610f1c565b5b600084013567ffffffffffffffff81111561154257611541610f21565b5b61154e868287016111ff565b935050602061155f8682870161115e565b925050604061157086828701610f4a565b9150509250925092565b600073ffffffffffffffffffffffffffffffffffffffff82169050919050565b60006115a58261157a565b9050919050565b6115b58161159a565b81146115c057600080fd5b50565b6000813590506115d2816115ac565b92915050565b6000602082840312156115ee576115ed610f1c565b5b60006115fc848285016115c3565b91505092915050565b600081905092915050565b7f3c73766720786d6c6e733d22687474703a2f2f7777772e77332e6f72672f323060008201527f30302f737667222076696577426f783d22302030200000000000000000000000602082015250565b600061166c603583611605565b915061167782611610565b603582019050919050565b600061168d82611006565b6116978185611605565b93506116a7818560208601611022565b80840191505092915050565b7f2000000000000000000000000000000000000000000000000000000000000000600082015250565b60006116e9600183611605565b91506116f4826116b3565b600182019050919050565b7f222077696474683d2235313222206865696768743d22353132223e0000000000600082015250565b6000611735601b83611605565b9150611740826116ff565b601b82019050919050565b60006117568261165f565b91506117628285611682565b915061176d826116dc565b91506117798284611682565b915061178482611728565b91508190509392505050565b7f4e487b7100000000000000000000000000000000000000000000000000000000600052603260045260246000fd5b7f4e487b7100000000000000000000000000000000000000000000000000000000600052602260045260246000fd5b6000600282049050600182168061180657607f821691505b602082108103611819576118186117bf565b5b50919050565b60008190508160005260206000209050919050565b60008154611841816117ee565b61184b8186611605565b94506001821660008114611866576001811461187b576118ae565b60ff19831686528115158202860193506118ae565b6118848561181f565b60005b838110156118a657815481890152600182019150602081019050611887565b838801955050505b50505092915050565b7f5061746368202300000000000000000000000000000000000000000000000000600082015250565b60006118ed600783611605565b91506118f8826118b7565b600782019050919050565b600061190f8285611834565b915061191a826118e0565b91506119268284611682565b91508190509392505050565b7f412070617463682c20756e6971756520616e642070617274206f66206120626960008201527f676765722077686f6c6500000000000000000000000000000000000000000000602082015250565b600061198e602a83611605565b915061199982611932565b602a82019050919050565b60006119b08284611834565b91506119bb82611981565b915081905092915050565b60006119d2368361122d565b9050919050565b600081905092915050565b60006119ef826113c0565b6119f981856119d9565b9350611a09818560208601611022565b80840191505092915050565b6000611a2182866119e4565b9150611a2d82856119e4565b9150611a398284611834565b9150819050949350505050565b6000611a528285611834565b9150611a5e8284611682565b91508190509392505050565b7f7b2274726169745f74797065223a20225061746368776f726b222c202276616c60008201527f7565223a22200000000000000000000000000000000000000000000000000000602082015250565b6000611ac6602683611605565b9150611ad182611a6a565b602682019050919050565b7f227d2c0000000000000000000000000000000000000000000000000000000000600082015250565b6000611b12600383611605565b9150611b1d82611adc565b600382019050919050565b7f7b2274726169745f74797065223a20224973222c202276616c7565223a22506160008201527f7274227d2c000000000000000000000000000000000000000000000000000000602082015250565b6000611b84602583611605565b9150611b8f82611b28565b602582019050919050565b6000611ba68285611834565b9150611bb182611ab9565b9150611bbd8284611682565b9150611bc882611b05565b9150611bd382611b77565b91508190509392505050565b6000611beb8284611834565b915081905092915050565b6000611c0282886119e4565b9150611c0e82876119e4565b9150611c1a82866119e4565b9150611c2682856119e4565b9150611c3282846119e4565b91508190509695505050505050565b600061ffff82169050919050565b7f4e487b7100000000000000000000000000000000000000000000000000000000600052601160045260246000fd5b6000611c8982611c41565b9150611c9483611c41565b9250828201905061ffff811115611cae57611cad611c4f565b5b92915050565b6000611cbf82611c41565b915061ffff8203611cd357611cd2611c4f565b5b600182019050919050565b6000611ce982610f26565b9150611cf483610f26565b9250828201905060ff811115611d0d57611d0c611c4f565b5b92915050565b6000611d1f82856119e4565b9150611d2b82846119e4565b91508190509392505050565b6000611d4282610f26565b915060ff8203611d5557611d54611c4f565b5b600182019050919050565b6000611d6b82610f26565b9150611d7683610f26565b9250828202611d8481610f26565b9150808214611d9657611d95611c4f565b5b5092915050565b7f222077696474683d223130383022206865696768743d2231303830223e000000600082015250565b6000611dd3601d83611605565b9150611dde82611d9d565b601d82019050919050565b6000611df48261165f565b9150611e008285611682565b9150611e0b826116dc565b9150611e178284611682565b9150611e2282611dc6565b91508190509392505050565b7f5061746368776f726b2023000000000000000000000000000000000000000000600082015250565b6000611e64600b83611605565b9150611e6f82611e2e565b600b82019050919050565b6000611e868285611834565b9150611e9182611e57565b9150611e9d8284611682565b91508190509392505050565b7f5468652077686f6c652c206973207468652073756d206f66206974732070617260008201527f7473000000000000000000000000000000000000000000000000000000000000602082015250565b6000611f05602283611605565b9150611f1082611ea9565b602282019050919050565b6000611f278284611834565b9150611f3282611ef8565b915081905092915050565b6000611f498385611605565b9350611f568385846111ae565b82840190509392505050565b6000611f6e82876119e4565b9150611f7b828587611f3d565b9150611f878284611834565b915081905095945050505050565b7f7b2274726169745f74797065223a20224973222c202276616c7565223a22576860008201527f6f6c65227d2c0000000000000000000000000000000000000000000000000000602082015250565b6000611ff1602683611605565b9150611ffc82611f95565b602682019050919050565b60006120138285611834565b915061201e82611ab9565b915061202a8284611682565b915061203582611b05565b915061204082611fe4565b91508190509392505050565b60006120578261113d565b91506120628361113d565b925082820190508082111561207a57612079611c4f565b5b92915050565b600061208b8261113d565b91506120968361113d565b92508282039050818111156120ae576120ad611c4f565b5b92915050565b60006120bf8261113d565b91507fffffffffffffffffffffffffffffffffffffffffffffffffffffffffffffffff82036120f1576120f0611c4f565b5b600182019050919050565b7f61646d696e204f6e6c7900000000000000000000000000000000000000000000600082015250565b6000612132600a83611011565b915061213d826120fc565b602082019050919050565b6000602082019050818103600083015261216181612125565b9050919050565b7f4e487b7100000000000000000000000000000000000000000000000000000000600052601260045260246000fd5b60006121a28261113d565b91506121ad8361113d565b9250826121bd576121bc612168565b5b828204905092915050565b60006121d38261113d565b91506121de8361113d565b9250826121ee576121ed612168565b5b828206905092915050565b60006122048261113d565b915061220f8361113d565b925082820261221d8161113d565b9150828204841483151761223457612233611c4f565b5b5092915050565b7f27207374726f6b653d2723000000000000000000000000000000000000000000600082015250565b6000612271600b83611605565b915061227c8261223b565b600b82019050919050565b7f27207374726f6b652d77696474683d27302e3035272f3e000000000000000000600082015250565b60006122bd601783611605565b91506122c882612287565b601782019050919050565b60006122de82612264565b91506122ea8284611682565b91506122f5826122b0565b915081905092915050565b600061230c8285611682565b915061231882846119e4565b91508190509392505050565b7f2720723d27300000000000000000000000000000000000000000000000000000600082015250565b600061235a600683611605565b915061236582612324565b600682019050919050565b7f272066696c6c3d27230000000000000000000000000000000000000000000000600082015250565b60006123a6600983611605565b91506123b182612370565b600982019050919050565b60006123c78261234d565b91506123d382846119e4565b91506123de82612399565b915081905092915050565b7f3c636972636c652063783d270000000000000000000000000000000000000000600082015250565b600061241f600c83611605565b915061242a826123e9565b600c82019050919050565b7f272063793d270000000000000000000000000000000000000000000000000000600082015250565b600061246b600683611605565b915061247682612435565b600682019050919050565b600061248c82612412565b915061249882886119e4565b91506124a38261245e565b91506124af82876119e4565b91506124bb82866119e4565b91506124c78285611682565b91506124d382846119e4565b91508190509695505050505050565b7f3c7265637420783d270000000000000000000000000000000000000000000000600082015250565b6000612518600983611605565b9150612523826124e2565b600982019050919050565b7f2720793d27000000000000000000000000000000000000000000000000000000600082015250565b6000612564600583611605565b915061256f8261252e565b600582019050919050565b7f272077696474683d270000000000000000000000000000000000000000000000600082015250565b60006125b0600983611605565b91506125bb8261257a565b600982019050919050565b7f27206865696768743d2700000000000000000000000000000000000000000000600082015250565b60006125fc600a83611605565b9150612607826125c6565b600a82019050919050565b600061261d8261250b565b91506126298289611682565b915061263482612557565b91506126408288611682565b915061264b826125a3565b915061265782876119e4565b9150612662826125ef565b915061266e82866119e4565b915061267982612399565b91506126858285611682565b915061269182846119e4565b915081905097965050505050505056fe4142434445464748494a4b4c4d4e4f505152535455565758595a6162636465666768696a6b6c6d6e6f707172737475767778797a303132333435363738392b2fa2646970667358221220e665355a4d47a814c3b1d1d2163b4866b6d9c5caa46abccec2f73a94f1be22a064736f6c63430008110033222c2022637265617465645f6279223a22536d617274636f6e7472617274222c2022696d616765223a22646174613a696d6167652f7376672b786d6c3b6261736536342c646174613a6170706c69636174696f6e2f6a736f6e3b757466382c7b226e616d65223a22",
  "immutableReferences": {},
  "source": "// SPDX-License-Identifier: MIT\n\npragma solidity >= 0.8.17;\n\nimport \"@openzeppelin/contracts/utils/Strings.sol\";\nimport \"./IPatchwork.sol\";\nimport \"./IPatchworkMetadata.sol\";\nimport 'base64-sol/base64.sol';\n\n\ncontract PatchworkMetadata is IPatchworkMetadata{\n\n    string[] private _uriComponents;\n    string _svgClosingTag = '</svg>';\n    string _defaultColor = 'aaaaaa';\n\n    mapping(address => bool) _isAdmin;\n\n    constructor () {\n        _uriComponents = [\n            'data:application/json;utf8,{\"name\":\"',\n            '\", \"description\":\"',\n            '\", \"created_by\":\"Smartcontrart\", \"image\":\"data:image/svg+xml;base64,',\n            '\", \"attributes\":[',\n            ']}'];\n        _isAdmin[msg.sender] = true;\n    }\n\n    modifier adminOnly{\n        require(_isAdmin[msg.sender],'admin Only');\n        _;\n    }\n    \n    function toggleADmin(address admin)external adminOnly{\n        _isAdmin[admin] = !_isAdmin[admin];\n    }\n    \n    function generatePatchSVG(\n        uint8 size,  \n        uint8 xmult, \n        uint8 ymult, \n        Patch memory patch\n    ) public pure returns(\n        bytes memory\n    ){\n        bytes memory tokenDrawing = '';\n        uint16 colorCounter = 0;\n        uint16 counter = 0;\n        for(uint8 x = 0; x < size; x++){\n            for(uint8 y = 0; y < size; y++){\n                string memory color = getInfo(patch.colors, colorCounter, 6);\n                string memory borderColor = getInfo(patch.borderColors, colorCounter, 6);\n                string memory hasBorder = getInfo(patch.borders, counter, 1);\n                string memory shape = getInfo(patch.shapes, counter, 1);\n                colorCounter += 6;\n                counter ++;\n                bytes memory pixel;\n                if(keccak256(bytes(shape)) == keccak256(\"c\")){\n                    pixel = getCirclePixel(x + xmult, y + ymult, color, hasBorder, borderColor);\n                }else{\n                    pixel = getSquarePixel(x + xmult, y + ymult, color, hasBorder, borderColor);\n                } \n                tokenDrawing = abi.encodePacked(\n                    tokenDrawing,\n                    pixel\n                );\n            }\n        }\n        return tokenDrawing;\n    }\n\n    function getInfo(string memory colors, uint index, uint8 length) public pure returns (string memory ) {\n        bytes memory colorsBytes = bytes(colors);\n        bytes memory color = new bytes((index + length) - index);\n        for(uint i = index; i < (index + length); i++) {\n            color[i-index] = colorsBytes[i];\n        }\n        return string(color);\n    }\n\n    function getSquarePixel(\n        uint8 x, \n        uint8 y,\n        string memory color,\n        string memory border,\n        string memory borderColor\n    ) internal pure returns(bytes memory){\n        bytes memory closingTag;\n        bytes memory pos;\n        if(keccak256(bytes(border)) == keccak256(\"y\")){\n            pos = '0.975';\n            closingTag = abi.encodePacked(\n                \"' stroke='#\",\n                borderColor,\n                \"' stroke-width='0.05'/>\"\n            );\n        }else{\n            pos = '1';\n            closingTag =  \"'/>\";\n        }\n        bytes memory pixel = abi.encodePacked(\n            \"<rect x='\",\n            Strings.toString(x),\n            \"' y='\",\n            Strings.toString(y),\n            \"' width='\",\n            pos,\n            \"' height='\",\n            pos,\n            \"' fill='#\",\n            color,\n            closingTag\n        );\n        return pixel;\n    }\n\n    function getCirclePixel(\n        uint8 x, \n        uint8 y, \n        string memory color,\n        string memory border,\n        string memory borderColor\n    ) internal pure returns(bytes memory){\n        bytes memory closingTag;\n        bytes memory pos;\n        if(keccak256(bytes(border)) == keccak256(\"y\") ? true : false){\n            pos = '.475';\n            closingTag = abi.encodePacked(\n                \"' stroke='#\",\n                borderColor,\n                \"' stroke-width='0.05'/>\"\n            );\n        }else{\n            pos = '.5';\n            closingTag = \"'/>\";\n        }\n        bytes memory pixel = abi.encodePacked(\n            \"<circle cx='\",\n            abi.encodePacked(Strings.toString(x),pos),\n            \"' cy='\",\n            abi.encodePacked(Strings.toString(y),pos),\n            abi.encodePacked(\"' r='0\", pos, \"' fill='#\"),\n            color,\n            closingTag\n        );\n        return pixel;\n    }\n\n    function getPatch(\n        uint8 size,\n        uint8 xmult,\n        uint8 ymult,\n        Patch calldata patch\n    )external view returns (string memory){\n        bytes memory header = abi.encodePacked(\n            '<svg xmlns=\"http://www.w3.org/2000/svg\" viewBox=\"0 0 ',\n            Strings.toString(size),\n            ' ',\n            Strings.toString(size),\n            '\" width=\"512\" height=\"512\">'\n        );\n        bytes memory byteString = abi.encodePacked(\n            abi.encodePacked(_uriComponents[0], \"Patch #\", Strings.toString(patch.id)),\n            abi.encodePacked(_uriComponents[1], \"A patch, unique and part of a bigger whole\"),\n            abi.encodePacked(_uriComponents[2], \n                Base64.encode(\n                    bytes(\n                    abi.encodePacked(\n                        header,\n                        generatePatchSVG(size, xmult, ymult, patch),\n                        _svgClosingTag\n                    )\n                    )\n                )\n            ),\n            abi.encodePacked(_uriComponents[3], \n                '{\"trait_type\": \"Patchwork\", \"value\":\" ', Strings.toString(patch.associatedPatchwork), '\"},',\n                '{\"trait_type\": \"Is\", \"value\":\"Part\"},'\n            ),\n            abi.encodePacked(_uriComponents[4])\n        );\n\n        return string(byteString);\n    }\n\n    function getPatchwork(\n        uint256 patchwork,\n        uint8 size,\n        string calldata patches\n    )external view returns (string memory){\n        bytes memory header = abi.encodePacked(\n            '<svg xmlns=\"http://www.w3.org/2000/svg\" viewBox=\"0 0 ',\n            Strings.toString(size * size),\n            ' ',\n            Strings.toString(size * size),\n            '\" width=\"1080\" height=\"1080\">'\n        );\n        bytes memory byteString = abi.encodePacked(\n            abi.encodePacked(_uriComponents[0], \"Patchwork #\", Strings.toString(patchwork)),\n            abi.encodePacked(_uriComponents[1], \"The whole, is the sum of its parts\"),\n            abi.encodePacked(_uriComponents[2], \n                Base64.encode(\n                    bytes(\n                    abi.encodePacked(\n                        header,\n                        patches,\n                        _svgClosingTag\n                    )\n                    )\n                )\n            ),\n            abi.encodePacked(_uriComponents[3], \n                '{\"trait_type\": \"Patchwork\", \"value\":\" ', Strings.toString(patchwork), '\"},',\n                '{\"trait_type\": \"Is\", \"value\":\"Whole\"},'\n            ),\n            abi.encodePacked(_uriComponents[4])\n        );\n        return string(byteString);\n    }\n\n}",
  "sourcePath": "/Users/bct/Documents/Dev/NFT_dev/Patchwork/contracts/PatchWorkMetadata.sol",
  "compiler": {
    "name": "solc",
    "version": "0.8.17+commit.8df45f5f.Emscripten.clang"
  },
  "schemaVersion": "3.4.4",
  "updatedAt": "2022-11-01T23:58:51.458Z",
  "devdoc": {
    "kind": "dev",
    "methods": {},
    "version": 1
  },
  "userdoc": {
    "kind": "user",
    "methods": {},
    "version": 1
  }
}